:100000000C942A000C9447000C9447000C94470071
:100010000C9447000C9447000C9447000C94470044
:100020000C9447000C9447000C9447000C94380C37
:100030000C9447000C94A6080C9447000C944700BD
:100040000C9447000C9447000C9447000C94470014
:100050000C94470011241FBECFE5D8E0DEBFCDBF12
:1000600015E0A0E6B0E0EAE1FCE802C005900D92E0
:10007000A23BB107D9F716E0A2EBB5E001C01D9293
:10008000A630B107E1F70E9463450C940B460C942F
:100090000000EF92FF920F931F937B018C0120E0F1
:1000A00030E040E05FE40E94F50388238CF0C80153
:1000B000B70120E030E040E05FE40E94C1010E940F
:1000C00055049B01AC01205030404040504806C0D0
:1000D000C801B7010E9455049B01AC01B901CA01D6
:1000E0001F910F91FF90EF900895A0E0B0E0EBE733
:1000F000F0E00C94D445DC012B01FA019C91923084
:1001000008F439C1EB018881823008F433C194309E
:1001100069F4843009F02FC111969C91119789815F
:10012000981709F428C1A0E4B3E025C1843009F48C
:1001300021C18230A9F4923009F01DC19A01AD01AC
:1001400088E0EA010990AE01E90109929E0181501F
:10015000C1F7E201898111969C918923818308C1AD
:10016000923009F407C112962D903C901397EB0141
:100170008A819B811496AD90BD90CD90DC901797AD
:10018000EC80FD800E811F819101281B390BB90184
:1001900037FF04C066277727621B730B6032710537
:1001A0000CF061C0121613066CF537014801062EDB
:1001B00004C096948794779467940A94D2F721E0C8
:1001C00030E040E050E004C0220F331F441F551FB1
:1001D0006A95D2F721503040404050402E213F21B7
:1001E00040235123211531054105510521F021E01E
:1001F00030E040E050E079018A01E628F72808293C
:1002000019293CC0232BD1F1260E371E350146019A
:10021000062E04C096948794779467940A94D2F734
:1002200021E030E040E050E004C0220F331F441FC3
:10023000551F6A95D2F721503040404050402A2146
:100240003B214C215D21211531054105510521F04E
:1002500021E030E040E050E059016A01A628B728CB
:10026000C828D9280BC0821593052CF01C01AA249C
:10027000BB24650103C0EE24FF24870111969C91E5
:10028000D20111968C91981709F445C0992339F041
:10029000A80197012A193B094C095D0906C0A6016E
:1002A00095012E193F09400B510B57FD08C01182D3
:1002B0003382228224833583468357831DC081E0A5
:1002C00081833382228288279927DC01821B930B4A
:1002D000A40BB50B84839583A683B7830DC0220F2F
:1002E000331F441F551F24833583468357838281E0
:1002F000938101979383828324813581468157813D
:10030000DA01C9010197A109B1098F5F9F4FAF4F72
:10031000BF4328F30BC0918333822282EA0CFB1C7B
:100320000C1D1D1DE482F5820683178383E0808304
:10033000248135814681578157FF1AC0C901AA27F8
:1003400097FDA095BA2F81709070A070B0705695EF
:10035000479537952795822B932BA42BB52B848318
:100360009583A683B7838281938101969383828349
:10037000DF0101C0D201CD01CDB7DEB7E2E10C94BF
:10038000F045A0E2B0E0E7ECF1E00C94E0456983D1
:100390007A838B839C832D833E834F835887E9E048
:1003A000EE2EF12CEC0EFD1ECE010196B7010E943F
:1003B00046068E010F5E1F4FCE010596B8010E94C2
:1003C00046068A8991E089278A8BC701B801AE0168
:1003D000475E5F4F0E9475000E947105A096E6E09F
:1003E0000C94FC45A0E2B0E0E8EFF1E00C94E045AD
:1003F00069837A838B839C832D833E834F835887C5
:10040000F9E0EF2EF12CEC0EFD1ECE010196B701A6
:100410000E9446068E010F5E1F4FCE010596B80161
:100420000E944606C701B801AE01475E5F4F0E94B9
:1004300075000E947105A096E6E00C94FC45A0E2D0
:10044000B0E0E5E2F2E00C94D44569837A838B83D3
:100450009C832D833E834F835887CE010196BE0136
:10046000675F7F4F0E944606CE010596BE016F5E14
:100470007F4F0E9446069985923088F089898230A4
:10048000C8F0943019F4823051F404C0843029F457
:10049000923081F480E493E0C6C0923049F420E0C9
:1004A0009A858A89981321E02A87CE010996BBC0D4
:1004B000823049F420E09A858A89981321E02A8BBA
:1004C000CE014196B0C02D843E844F8458886D88FB
:1004D0007E888F88988CEE24FF248701AA24BB2471
:1004E000650140E050E060E070E0E0E0F0E0C10174
:1004F00081709070892BE9F0E60CF71C081D191D1E
:100500009A01AB012A0D3B1D4C1D5D1D80E090E062
:10051000A0E0B0E0E614F7040805190520F481E036
:1005200090E0A0E0B0E0BA01A901480F591F6A1F8E
:100530007B1FAA0CBB1CCC1CDD1C97FE08C081E0F5
:1005400090E0A0E0B0E0A82AB92ACA2ADB2A3196B6
:10055000E032F10549F0660C771C881C991C569412
:10056000479437942794C3CFFA85EA892B893C892D
:100570008B859C85280F391F2E5F3F4F17C0CA01FE
:1005800081709070892B61F016950795F794E79428
:1005900080E090E0A0E0B0E8E82AF92A0A2B1B2BC3
:1005A00076956795579547952F5F3F4F77FDE7CF36
:1005B0000CC0440F551F661F771F17FD4160EE0CDE
:1005C000FF1C001F111F21503040403090E05907A0
:1005D00090E0690790E4790760F32B8F3C8FDB0193
:1005E000CA018F779070A070B07080349105A1051A
:1005F000B10561F447FD0AC0E114F10401051105DC
:1006000029F0405C5F4F6F4F7F4F40781A8EFE1786
:1006100011F081E08A8F4D8F5E8F6F8F78A383E01A
:10062000898FCE0149960E947105A096E2E10C9453
:10063000F045A8E1B0E0EFE1F3E00C94DC4569831C
:100640007A838B839C832D833E834F835887B9E0C5
:10065000EB2EF12CEC0EFD1ECE010196B7010E948F
:1006600046068E010F5E1F4FCE010596B8010E940F
:1006700046062985223008F47EC03989323010F4CC
:10068000B8017CC08A859A8989278A87243011F02D
:10069000223031F4231709F06EC060E473E06EC0BD
:1006A000343039F41D861E861F86188A1C861B86E8
:1006B00004C0323021F484E08987B7015FC02B8504
:1006C0003C858B899C89281B390B3C872B87ED84C3
:1006D000FE840F851889AD88BE88CF88D88CEA142F
:1006E000FB040C051D0540F4EE0CFF1C001F111F40
:1006F000215030403C872B8720E030E040E050E044
:1007000080E090E0A0E0B0E460E070E0EA14FB0478
:100710000C051D0540F0282B392B4A2B5B2BEA18C2
:10072000FB080C091D09B695A79597958795EE0CC2
:10073000FF1C001F111F6F5F7F4F6F31710531F775
:10074000DA01C9018F779070A070B0708034910584
:10075000A105B10561F427FD0AC0E114F10401050A
:10076000110529F0205C3F4F4F4F5F4F20782D87B8
:100770003E874F87588BBE01675F7F4FCB010E943A
:1007800071056896EAE00C94F845A8E1B0E0EBEC5E
:10079000F3E00C94E04569837A838B839C832D83FB
:1007A0003E834F83588789E0E82EF12CEC0EFD1E26
:1007B000CE010196B7010E9446068E010F5E1F4FC3
:1007C000CE010596B8010E9446068985823040F028
:1007D0008989823028F0C701B8010E94BE0601C095
:1007E0008FEF6896E6E00C94FC45A8E1B0E0EBEFF3
:1007F000F3E00C94E04569837A838B839C832D839B
:100800003E834F83588789E0E82EF12CEC0EFD1EC5
:10081000CE010196B7010E9446068E010F5E1F4F62
:10082000CE010596B8010E9446068985823040F0C7
:100830008989823028F0C701B8010E94BE0601C034
:100840008FEF6896E6E00C94FC45A8E1B0E0EBE29F
:10085000F4E00C94E04569837A838B839C832D8339
:100860003E834F83588789E0E82EF12CEC0EFD1E65
:10087000CE010196B7010E9446068E010F5E1F4F02
:10088000CE010596B8010E9446068985823040F067
:100890008989823028F0C701B8010E94BE0601C0D4
:1008A00081E06896E6E00C94FC45ACE0B0E0EBE556
:1008B000F4E00C94E44569837A838B839C83CE01B6
:1008C0000196BE016B5F7F4F0E9446068D8182308C
:1008D00061F1823050F1843021F48E81882351F10E
:1008E0002EC02F81388537FD20C06E812F31310514
:1008F0001CF06623F9F023C08EE190E0821B930B7D
:1009000029853A854B855C8504C056954795379572
:1009100027958A95D2F76623B1F05095409530958A
:1009200021953F4F4F4F5F4F0EC020E030E040E039
:1009300050E009C02FEF3FEF4FEF5FE704C020E02A
:1009400030E040E050E8B901CA012C96E2E00C9496
:100950000046A8E0B0E0EFEAF4E00C94DC457B014F
:100960008C01611571058105910519F482E0898377
:1009700060C083E089838EE1C82ED12CDC82CB82DB
:10098000ED82FE820F831887C801B7010E942205FD
:10099000FC013197F7FF3BC0222733272E1B3F0B6B
:1009A00057016801022E04C0D694C794B794A79447
:1009B0000A94D2F740E050E060E070E081E090E01F
:1009C000A0E0B0E004C0880F991FAA1FBB1F2A95A2
:1009D000D2F70197A109B1098E219F21A023B1234C
:1009E0000097A105B10521F041E050E060E070E022
:1009F0004A295B296C297D294D835E836F83788723
:100A00008EE190E08E1B9F0B9C838B8312C03097EE
:100A100081F00E2E04C0EE0CFF1C001F111F0A9463
:100A2000D2F7ED82FE820F831887CE1ADF0ADC82AE
:100A3000CB821A82CE0101960E9471052896EAE0C7
:100A40000C94F845EF92FF920F931F937B018C015A
:100A500080E0E81680E0F80681E0080780E01807EB
:100A600088F48FEFE816F1040105110531F028F044
:100A700088E090E0A0E0B0E017C080E090E0A0E067
:100A8000B0E012C080E0E81680E0F80680E00807D9
:100A900081E0180728F088E190E0A0E0B0E004C011
:100AA00080E190E0A0E0B0E020E230E040E050E003
:100AB000281B390B4A0B5B0B04C016950795F7945E
:100AC000E7948A95D2F7F701E85BFC4F8081281BF9
:100AD000310941095109C9011F910F91FF90EF9010
:100AE0000895DF92EF92FF920F931F93FC01E48031
:100AF000F58006811781D1808081823048F480E0C2
:100B000090E0A0E1B0E0E82AF92A0A2B1B2BA5C04F
:100B1000843009F49FC0823021F4EE24FF24870141
:100B200005C0E114F1040105110519F4E0E0F0E05D
:100B300096C0628173819FEF623879070CF05BC0C9
:100B400022E83FEF261B370B2A3131052CF020E03D
:100B500030E040E050E02AC0B801A701022E04C0F6
:100B600076956795579547950A94D2F781E090E07E
:100B7000A0E0B0E004C0880F991FAA1FBB1F2A95F0
:100B8000D2F70197A109B1098E219F21A023B1239A
:100B90000097A105B10521F081E090E0A0E0B0E070
:100BA0009A01AB01282B392B4A2B5B2BDA01C901A7
:100BB0008F779070A070B07080349105A105B10559
:100BC00039F427FF09C0205C3F4F4F4F5F4F04C0EF
:100BD000215C3F4F4F4F5F4FE0E0F0E02030A0E05E
:100BE0003A07A0E04A07A0E45A0710F0E1E0F0E07D
:100BF00079018A0127C06038710564F5FB01E1586D
:100C0000FF4FD801C7018F779070A070B07080340B
:100C10009105A105B10539F4E7FE0DC080E490E02F
:100C2000A0E0B0E004C08FE390E0A0E0B0E0E80E08
:100C3000F91E0A1F1B1F17FF05C016950795F7948D
:100C4000E794319687E016950795F794E7948A958F
:100C5000D1F705C0EE24FF248701EFEFF0E06E2FFF
:100C6000679566276795902F9F77D794DD24D79453
:100C70008E2F8695492F462B582F5D29B701CA0123
:100C80001F910F91FF90EF90DF900895FC01DB0121
:100C9000408151812281622F6F7770E0221F2227CD
:100CA000221F9381892F880F822B282F30E0991FD4
:100CB0009927991F11969C93119721153105A9F534
:100CC000411551056105710511F482E037C082E8D4
:100CD0009FEF13969C938E9312979A01AB0167E056
:100CE000220F331F441F551F6A95D1F783E08C9361
:100CF0000DC0220F331F441F551F12968D919C91DA
:100D00001397019713969C938E931297203080E04F
:100D1000380780E0480780E4580758F314962D936D
:100D20003D934D935C93179708952F3F310579F4C8
:100D3000411551056105710519F484E08C930895FE
:100D400064FF03C081E08C9312C01C9210C02F5727
:100D5000304013963C932E93129783E08C9387E058
:100D6000440F551F661F771F8A95D1F7706414963C
:100D70004D935D936D937C93179708951F93DC01BA
:100D8000FB019C91923008F447C08081823008F4C6
:100D900043C0943051F411961C91843099F58181AF
:100DA000682F70E0611B71093FC0843021F09230E0
:100DB00031F48230B9F18181882389F12DC01196F7
:100DC0001C9111978230F1F081811817D9F4129695
:100DD0002D913C911397828193818217930794F010
:100DE00028173907BCF014968D919D910D90BC91F8
:100DF000A02D2481358146815781281739074A075C
:100E00005B0718F4112341F00AC082179307A40767
:100E1000B50740F4112319F061E070E005C06FEFF1
:100E20007FEF02C060E070E0CB011F910895DF9377
:100E3000CF93CDB7DEB72B970FB6F894DEBF0FBEBA
:100E4000CDBF9B838A83198289818F7B8983898126
:100E50008E7F8983EA81FB81208131813B872A87CC
:100E60008A859B8587369105A9F02A853B8528369A
:100E7000310530F48A859B858031910581F013C05E
:100E80002A853B852F3C310571F4E9E2F0E08FECD7
:100E9000808309C0E9E2F0E088E0808304C0E9E2F1
:100EA000F0E080E18083EA81FB818281282F30E0BD
:100EB000398728878885998582309105B1F1288501
:100EC00039852330310554F488859985009789F058
:100ED0002885398521303105D1F050C08885998524
:100EE0008330910581F12885398524303105C9F198
:100EF00045C089818D7F898389818B7F8983AAE21F
:100F0000B0E0EAE2F0E080818B7F8C9337C089818A
:100F10008260898389818B7F8983AAE2B0E0EAE2DB
:100F2000F0E080818B7F8C9329C089818D7F8983BC
:100F3000898184608983AAE2B0E0EAE2F0E08081FE
:100F40008B7F8C931BC089818260898389818460B7
:100F50008983AAE2B0E0EAE2F0E080818B7F8C93A3
:100F60000DC0898182608983898184608983AAE236
:100F7000B0E0EAE2F0E0808184608C93EA81FB815A
:100F80008381282F30E03F832E838E819F818130A3
:100F9000910569F02E813F812230310579F08E81F3
:100FA0009F81009789F489818F7C89830DC0898115
:100FB0008F7C898389818062898306C089818F7C47
:100FC0008983898180638983EA81FB818481282FD9
:100FD00030E03D832C838C819D81009731F02C8102
:100FE0003D812130310529F00AC08981877F8983BD
:100FF00006C08981877F8983898188608983898107
:101000008F778983898180688983E0E4F0E0898132
:101010008083AAE2B0E0EAE2F0E0808188608C930D
:10102000AAE2B0E0EAE2F0E0808180688C93AAE274
:10103000B0E0EAE2F0E0808180618C932B960FB6FD
:10104000F894DEBF0FBECDBFCF91DF910895DF933F
:10105000CF930F92CDB7DEB78983EBE2F0E08081CA
:10106000829586958770882F90E0817090700097A8
:10107000A1F3ECE2F0E0898180830F90CF91DF91C2
:101080000895DF93CF9300D00F92CDB7DEB79B8347
:101090008A83198219820EC08981282F30E08A81C3
:1010A0009B81FC01E20FF31F80810E942708898148
:1010B0008F5F89838981282F30E08A819B81FC01A1
:1010C000E20FF31F8081882339F70F900F900F9064
:1010D000CF91DF910895DF93CF930F92CDB7DEB715
:1010E0001982EBE2F0E08081882324F089818F5F10
:1010F0008983F7CFECE2F0E080810F90CF91DF9110
:101100000895DF93CF93CDB7DEB7ECE2F0E08081B6
:10111000CF91DF910895DF93CF9300D00F92CDB799
:10112000DEB79B838A8381E089838A819B810097D4
:1011300031F08A819B819093B3058093B2058981B8
:101140000F900F900F90CF91DF9108951F920F9203
:101150000FB60F9211242F933F934F935F936F938A
:101160007F938F939F93AF93BF93EF93FF93DF93FF
:10117000CF93CDB7DEB78091B2059091B3050097BC
:1011800029F0E091B205F091B3050995CF91DF9177
:10119000FF91EF91BF91AF919F918F917F916F914F
:1011A0005F914F913F912F910F900FBE0F901F9025
:1011B0001895DF93CF930F92CDB7DEB78983A1E265
:1011C000B0E0E1E2F0E08081887F8C93A1E2B0E0C2
:1011D000E1E2F0E080818C93E0E2F0E089818083BD
:1011E000A6E5B0E0E6E5F0E0808184688C930F909E
:1011F000CF91DF910895DF93CF93CDB7DEB7E6E5CA
:10120000F0E084EA8083E6E5F0E080818823DCF783
:101210000E948709CF91DF910895DF93CF930F92BA
:10122000CDB7DEB78983E2E2F0E0898180830F9059
:10123000CF91DF910895DF93CF930F92CDB7DEB7B3
:101240008983E3E2F0E089818083E6E5F0E084E8E9
:101250008083E6E5F0E080818823DCF70E9487093F
:101260000F90CF91DF910895DF93CF9300D0CDB74A
:10127000DEB79A838983A6E5B0E0E6E5F0E08081F9
:10128000846C8C93E6E5F0E080818823DCF7E3E270
:10129000F0E08081E981FA8180830F900F90CF91F7
:1012A000DF910895DF93CF9300D0CDB7DEB79A8357
:1012B0008983A6E5B0E0E6E5F0E080818F7B8C9342
:1012C000E6E5F0E084E88083E6E5F0E080818823CD
:1012D000DCF7E3E2F0E08081E981FA8180830F901E
:1012E0000F90CF91DF910895DF93CF9300D0CDB7CA
:1012F000DEB79A838983E1E2F0E08081887FE9812B
:10130000FA8180830F900F90CF91DF910895DF9342
:10131000CF93CDB7DEB7E1E2F0E08081887FCF9157
:10132000DF910895DF93CF93CDB7DEB7A6E5B0E0A8
:10133000E6E5F0E0808184698C93CF91DF91089598
:10134000DF93CF9300D000D000D0CDB7DEB7898334
:101350006A83A3E5B0E0E3E5F0E08081877D8C93CC
:101360008981282F30E03E832D838D819E818130BD
:10137000910521F12D813E81223031052CF48D81A2
:101380009E81009761F029C02D813E812230310578
:10139000E9F08D819E818330910541F01EC0E3E527
:1013A000F0E0A3E5B0E08C91808317C0A3E5B0E046
:1013B000E3E5F0E0808180648C930FC0A3E5B0E0AA
:1013C000E3E5F0E0808188608C9307C0A3E5B0E09E
:1013D000E3E5F0E0808188648C93A3E5B0E0E3E589
:1013E000F0E0808180728C938A81282F30E03C83EA
:1013F0002B838B819C818230910571F12B813C8103
:101400002330310554F48B819C810097B1F02B81FE
:101410003C8121303105C1F03EC08B819C818430FC
:10142000910551F12B813C8124303105ECF08B8109
:101430009C818530910541F12EC0E3E5F0E0A3E504
:10144000B0E08C91808327C0A3E5B0E0E3E5F0E055
:10145000808180618C931FC0A3E5B0E0E3E5F0E0FC
:10146000808180628C9317C0A3E5B0E0E3E5F0E0F3
:10147000808180638C930FC0A3E5B0E0E3E5F0E0EA
:10148000808180638C9307C0A3E5B0E0E3E5F0E0E2
:10149000808180628C9326960FB6F894DEBF0FBED3
:1014A000CDBFCF91DF910895DF93CF930F92CDB74A
:1014B000DEB78983A3E5B0E0E3E5F0E08081887FD3
:1014C0008C93A3E5B0E0E3E5F0E090818981892B7E
:1014D0008C930F90CF91DF910895DF93CF93CDB789
:1014E000DEB7A3E5B0E0E3E5F0E08081886F8C93A0
:1014F000CF91DF910895DF93CF9300D0CDB7DEB7C2
:101500008A838A81882399F48091C0059091C105CE
:10151000A091C205B091C305BA2FA92F982F882793
:10152000982FE2E5F0E08081890F898316C08A81D7
:10153000813099F48091C4059091C505A091C605AC
:10154000B091C7052FEF30E040E050E0BC01CD0185
:101550000E946C45DC01CB01898389810F900F903B
:10156000CF91DF910895DF93CF93CDB7DEB7AF97DB
:101570000FB6F894DEBF0FBECDBF6DA37EA38FA3C1
:1015800098A749A72AA78AA50E94540ACE01419686
:101590009CA78BA7E7E1F5E0FEA7EDA7F4E1FFA785
:1015A000EDA5FEA500808DA59EA501969EA78DA701
:1015B000EBA5FCA500828BA59CA501969CA78BA7FB
:1015C0009FA591509FA7EFA5EE2351F78AA5882FDD
:1015D00090E001979C01220F331F220F331FCE0191
:1015E0000196820F931FFC01709680819181A281E8
:1015F000B381BC01CD010E94A904DC01CB01BC0177
:10160000CD0120E034E244E75BE40E941903DC01F1
:10161000CB018D879E87AF87B88B19861A861B866C
:101620001C861D821E821F8218866DA17EA18FA13D
:1016300098A50E94A904DC01CB01BC01CD012D8538
:101640003E854F8558890E941903DC01CB01BC01FE
:10165000CD010E944900DC01CB0189879A87AB87C5
:10166000BC8789A5882309F051C089859A85AB85F7
:10167000BC85072E79E0B695A795979587957A95BD
:10168000D1F7702D8093B8059093B905A093BA0552
:10169000B093BB0589859A85AB85BC859070A07099
:1016A000B0708093BC059093BD05A093BE05B09328
:1016B000BF058091BC059091BD05A091BE05B0917C
:1016C000BF050097A105B10509F464C0E2E5F0E0AB
:1016D0008091BC059091BD05A091BE05B091BF055C
:1016E000819580838091B8059091B905A091BA0544
:1016F000B091BB050196A11DB11D8093B8059093D3
:10170000B905A093BA05B093BB0544C089A5813043
:1017100009F040C08FEF90E0A0E0B0E08D839E83A1
:10172000AF83B88719821A821B821C820BC08D81FD
:101730009E81AF81B8850197A109B1098D839E83F0
:10174000AF83B88789859A85AB85BC852D813E811D
:101750004F815885BC01CD010E949745DC01CB012A
:101760000097A105B10519F789859A85AB85BC85D8
:101770002D813E814F815885BC01CD010E94974546
:10178000DC01CB0189839A83AB83BC83ECE5F0E079
:1017900089818083AF960FB6F894DEBF0FBECDBFB0
:1017A000CF91DF910895DF93CF930F92CDB7DEB73E
:1017B00089838981882341F4A9E5B0E0E9E5F0E077
:1017C000808182608C930AC08981813039F4A9E5D7
:1017D000B0E0E9E5F0E0808181608C930F90CF91DB
:1017E000DF910895DF93CF93CDB7DEB7A9E5B0E0E1
:1017F000E9E5F0E080818D7F8C93A9E5B0E0E9E533
:10180000F0E080818E7F8C93CF91DF910895DF93FC
:10181000CF9300D000D00F92CDB7DEB789837B8302
:101820006A838A819B810097D9F08981282F30E0D3
:101830003D832C838C819D81009761F02C813D81BB
:101840002130310569F48A819B819093B50580939D
:10185000B40506C08A819B819093B7058093B60535
:101860000F900F900F900F900F90CF91DF910895F0
:101870001F920F920FB60F9211242F933F934F9305
:101880005F936F937F938F939F93AF93BF93EF93E8
:10189000FF93DF93CF93CDB7DEB78091C0059091D2
:1018A000C105A091C205B091C3050196A11DB11D4E
:1018B0008093C0059093C105A093C205B093C30562
:1018C0002091C0053091C1054091C2055091C305DA
:1018D0008091B8059091B905A091BA05B091BB056A
:1018E000281739074A075B07C9F4E091B405F0915E
:1018F000B50509951092C0051092C1051092C20558
:101900001092C305E2E5F0E08091BC059091BD0521
:10191000A091BE05B091BF0581958083CF91DF91E5
:10192000FF91EF91BF91AF919F918F917F916F91B7
:101930005F914F913F912F910F900FBE0F901F908D
:101940001895DF93CF93CDB7DEB72B970FB6F894EA
:10195000DEBF0FBECDBF9D838C838C819D810097A0
:1019600009F451C21B824BC28B81882F90E09C01ED
:10197000220F331F220F331F8C819D81FC01E20F48
:10198000F31F80819AE0692F0E948B45892F8A83FB
:101990008B81882F90E09C01220F331F220F331F71
:1019A0008C819D81FC01E20FF31F80819AE0692FF9
:1019B0000E948B4589838B81882F90E09C01220FA8
:1019C000331F220F331F8C819D81FC01E20FF31F17
:1019D0008281882389F08B81882F90E09C01220FDF
:1019E000331F220F331F8C819D81FC01E20FF31FF7
:1019F0008281813009F000C28981282F30E03B8745
:101A00002A876A857B8562307105D1F18A859B853D
:101A10008330910534F42A853B852130310571F0FE
:101A200094C06A857B856330710509F44BC08A8553
:101A30009B858430910509F467C087C0AAE3B0E0B4
:101A4000EAE3F0E040818B81882F90E09C01220F37
:101A5000331F220F331F8C819D81FC01E20FF31F86
:101A60008281282F30E08A81882F90E0B90102C05E
:101A7000660F771F8A95E2F7CB01842B8C9365C0A4
:101A8000A7E3B0E0E7E3F0E040818B81882F90E0AE
:101A90009C01220F331F220F331F8C819D81FC017B
:101AA000E20FF31F8281282F30E08A81882F90E097
:101AB000B90102C0660F771F8A95E2F7CB01842B2C
:101AC0008C9343C0A4E3B0E0E4E3F0E040818B8179
:101AD000882F90E09C01220F331F220F331F8C812F
:101AE0009D81FC01E20FF31F8281282F30E08A8163
:101AF000882F90E0B90102C0660F771F8A95E2F740
:101B0000CB01842B8C9321C0A1E3B0E0E1E3F0E0B2
:101B100040818B81882F90E09C01220F331F220F80
:101B2000331F8C819D81FC01E20FF31F8281282FDE
:101B300030E08A81882F90E0B90102C0660F771FDC
:101B40008A95E2F7CB01842B8C938B81882F90E0D0
:101B50009C01220F331F220F331F8C819D81FC01BA
:101B6000E20FF31F8181882389F08B81882F90E019
:101B70009C01220F331F220F331F8C819D81FC019A
:101B8000E20FF31F8181813009F036C18981282F4E
:101B900030E0398728876885798562307105D1F111
:101BA000888599858330910534F4288539852130DD
:101BB000310571F094C0688579856330710509F449
:101BC0004BC0888599858430910509F467C087C02A
:101BD000ABE3B0E0EBE3F0E040818B81882F90E055
:101BE0009C01220F331F220F331F8C819D81FC012A
:101BF000E20FF31F8181282F30E08A81882F90E047
:101C0000B90102C0660F771F8A95E2F7CB01842BDA
:101C10008C9365C0A8E3B0E0E8E3F0E040818B81FD
:101C2000882F90E09C01220F331F220F331F8C81DD
:101C30009D81FC01E20FF31F8181282F30E08A8112
:101C4000882F90E0B90102C0660F771F8A95E2F7EE
:101C5000CB01842B8C9343C0A5E3B0E0E5E3F0E037
:101C600040818B81882F90E09C01220F331F220F2F
:101C7000331F8C819D81FC01E20FF31F8181282F8E
:101C800030E08A81882F90E0B90102C0660F771F8B
:101C90008A95E2F7CB01842B8C9321C0A2E3B0E0BC
:101CA000E2E3F0E040818B81882F90E09C01220FDD
:101CB000331F220F331F8C819D81FC01E20FF31F24
:101CC0008181282F30E08A81882F90E0B90102C0FD
:101CD000660F771F8A95E2F7CB01842B8C938B815B
:101CE000882F90E09C01220F331F220F331F8C811D
:101CF0009D81FC01E20FF31F8281813009F07CC0DD
:101D00008B81882F90E09C01220F331F220F331FFD
:101D10008C819D81FC01E20FF31F8381882309F0F0
:101D20006BC08981282F30E03F832E836E817F81B5
:101D30006230710549F18E819F818330910534F4C1
:101D40002E813F812130310561F056C06E817F8147
:101D50006330710561F18E819F8184309105D1F1ED
:101D60004BC0ABE3B0E0EBE3F0E040818A81282F89
:101D700030E081E090E0022E02C0880F991F0A94A3
:101D8000E2F7842B8C9338C0A8E3B0E0E8E3F0E0FE
:101D900040818A81282F30E081E090E0022E02C04D
:101DA000880F991F0A94E2F7842B8C9325C0A5E332
:101DB000B0E0E5E3F0E040818A81282F30E081E067
:101DC00090E0022E02C0880F991F0A94E2F7842B3C
:101DD0008C9312C0A2E3B0E0E2E3F0E040818A819C
:101DE000282F30E081E090E0022E02C0880F991F7A
:101DF0000A94E2F7842B8C938B818F5F8B838B818A
:101E0000803208F4B1CD2B960FB6F894DEBF0FBE2A
:101E1000CDBFCF91DF910895DF93CF93CDB7DEB7DC
:101E2000AFE5B0E0EFE5F0E0808180688C93CF9182
:101E3000DF910895DF93CF93CDB7DEB7AFE5B0E084
:101E4000EFE5F0E080818F778C93CF91DF9108955B
:101E5000DF93CF9300D000D000D0CDB7DEB78C8316
:101E60008C819AE0692F0E948B45892F8B838C810E
:101E70009AE0692F0E948B458A838A81282F30E05F
:101E80003E832D834D815E814230510541F18D812C
:101E90009E818330910534F42D813E8121303105BE
:101EA00061F052C04D815E814330510551F18D8109
:101EB0009E8184309105B9F147C0E9E3F0E080816B
:101EC000282F30E08B81882F90E0A90102C0559522
:101ED00047958A95E2F7CA018170898335C0E6E3A8
:101EE000F0E08081282F30E08B81882F90E0A901DD
:101EF00002C0559547958A95E2F7CA01817089839A
:101F000023C0E3E3F0E08081282F30E08B81882F2D
:101F100090E0A90102C0559547958A95E2F7CA015C
:101F20008170898311C0E0E3F0E08081282F30E0E8
:101F30008B81882F90E0A90102C0559547958A951D
:101F4000E2F7CA0181708983898126960FB6F894D9
:101F5000DEBF0FBECDBFCF91DF910895DF93CF934A
:101F6000CDB7DEB728970FB6F894DEBF0FBECDBF52
:101F70008B836C838B819AE0692F0E948B45892F1C
:101F80008A838B819AE0692F0E948B4589838C819B
:101F9000813009F070C08981282F30E038872F8385
:101FA0008F8198858230910551F12F8138852330BA
:101FB000310534F48F8198858130910561F0D3C06B
:101FC0002F8138852330310571F18F8198858430D8
:101FD0009105E9F1C8C0ABE3B0E0EBE3F0E080814C
:101FE000482F8A81282F30E081E090E0022E02C045
:101FF000880F991F0A94E2F7842B8C93B4C0A8E34E
:10200000B0E0E8E3F0E08081482F8A81282F30E0BB
:1020100081E090E0022E02C0880F991F0A94E2F737
:10202000842B8C93A0C0A5E3B0E0E5E3F0E08081D1
:10203000482F8A81282F30E081E090E0022E02C0F4
:10204000880F991F0A94E2F7842B8C938CC0A2E32B
:10205000B0E0E2E3F0E08081482F8A81282F30E071
:1020600081E090E0022E02C0880F991F0A94E2F7E7
:10207000842B8C9378C08C81882309F074C089816B
:10208000282F30E03E832D838D819E818230910503
:1020900061F12D813E812330310534F48D819E81A3
:1020A0008130910569F05FC02D813E81233031057B
:1020B00089F18D819E818430910509F440C053C01F
:1020C000ABE3B0E0EBE3F0E08081482F8A81282F7A
:1020D00030E081E090E0022E02C0880F991F0A9440
:1020E000E2F7809584238C933EC0A8E3B0E0E8E358
:1020F000F0E08081482F8A81282F30E081E090E055
:10210000022E02C0880F991F0A94E2F7809584235B
:102110008C9329C0A5E3B0E0E5E3F0E08081482F8F
:102120008A81282F30E081E090E0022E02C0880FE3
:10213000991F0A94E2F7809584238C9314C0A2E33C
:10214000B0E0E2E3F0E08081482F8A81282F30E080
:1021500081E090E0022E02C0880F991F0A94E2F7F6
:10216000809584238C9328960FB6F894DEBF0FBE1B
:10217000CDBFCF91DF910895DF93CF9300D000D0F2
:10218000CDB7DEB78A838A81282F30E03C832B834A
:102190008B819C8182309105D9F02B813C81233049
:1021A000310534F48B819C818130910561F01EC032
:1021B0002B813C812330310581F08B819C818430DF
:1021C000910581F013C0EBE3F0E0808189830EC0BC
:1021D000E8E3F0E08081898309C0E5E3F0E08081F5
:1021E000898304C0E2E3F0E08081898389810F90D4
:1021F0000F900F900F90CF91DF910895DF93CF93C1
:1022000000D000D0CDB7DEB789836A838981282FBB
:1022100030E03C832B838B819C8182309105D9F007
:102220002B813C812330310534F48B819C818130BA
:10223000910561F01EC02B813C812330310581F076
:102240008B819C818430910581F013C0EBE3F0E039
:102250008A8180830EC0E8E3F0E08A81808309C030
:10226000E5E3F0E08A81808304C0E2E3F0E08A8164
:1022700080830F900F900F900F90CF91DF91089572
:10228000DF93CF9300D000D00F92CDB7DEB78B8312
:102290008B819AE0692F0E948B45892F8A838B81DD
:1022A0009AE0692F0E948B4589838981282F30E02D
:1022B0003D832C838C819D818230910551F12C814D
:1022C0003D812330310534F48C819D81813091052D
:1022D00061F05AC02C813D812330310571F18C8130
:1022E0009D8184309105E9F14FC0ABE3B0E0EBE3B1
:1022F000F0E08081482F8A81282F30E081E090E053
:10230000022E02C0880F991F0A94E2F784278C934B
:102310003BC0A8E3B0E0E8E3F0E08081482F8A8189
:10232000282F30E081E090E0022E02C0880F991F34
:102330000A94E2F784278C9327C0A5E3B0E0E5E395
:10234000F0E08081482F8A81282F30E081E090E002
:10235000022E02C0880F991F0A94E2F784278C93FB
:1023600013C0A2E3B0E0E2E3F0E08081482F8A816D
:10237000282F30E081E090E0022E02C0880F991FE4
:102380000A94E2F784278C930F900F900F900F9090
:102390000F90CF91DF910895DF93CF9300D00F92EC
:1023A000CDB7DEB789838981282F30E03B832A832C
:1023B0008A819B818130910531F02A813B812230D5
:1023C000310531F009C085E261E00E94AE0F04C022
:1023D00081E161E00E94AE0F0F900F900F90CF91BE
:1023E000DF910895DF93CF9300D00F92CDB7DEB782
:1023F00089838981282F30E03B832A838A819B81CE
:102400008130910531F02A813B812230310531F054
:1024100009C085E260E00E94AE0F04C081E160E087
:102420000E94AE0F0F900F900F90CF91DF91089503
:10243000DF93CF93CDB7DEB784E20E94D908CF9166
:10244000DF910895DF93CF9300D000D0CDB7DEB7F2
:102450009B838A836C83EA81FB81808189830E94CC
:10246000FB0880ED0E941B0980E00E941B09EA81A5
:10247000FB8182810E9448130E941B09EA81FB8133
:1024800081810E9448130E941B098C818C3321F4A6
:1024900089818066898306C08C81883219F489819C
:1024A0008064898389810E941B090E9492090F9090
:1024B0000F900F900F90CF91DF910895DF93CF93FE
:1024C00000D000D000D0CDB7DEB70E94FB0880ED71
:1024D0000E941B0980E00E941B090E94FB0881EDFD
:1024E0000E941B09CE0106960E9434098E810E942B
:1024F00075138E810E9475138C83CE0106960E94FF
:1025000034098E810E9475138E810E9475138B830E
:10251000CE0106960E9452098E81807F898389812F
:102520000E9475138D838E818F708E838E810E94A1
:1025300075138A830E9492098A819B81AC81BD8137
:10254000BC01CD0126960FB6F894DEBF0FBECDBFFD
:10255000CF91DF910895DF93CF9300D0CDB7DEB751
:102560009A8389830E94FB0880ED0E941B0984E006
:102570000E941B09E981FA8180810E9448130E9410
:102580001B09E981FA8181810E9448130E941B097D
:10259000E981FA8182810E9448130E941B090E94EE
:1025A00092090F900F90CF91DF910895DF93CF9311
:1025B000CDB7DEB760970FB6F894DEBF0FBECDBFC4
:1025C0000E94FB0880ED0E941B0984E00E941B0909
:1025D0000E94FB0881ED0E941B09CE0107960E9414
:1025E00034098F810E9475138F810E9475138C832B
:1025F000CE0107960E9434098F810E9475138F8146
:102600000E9475138D83CE0107960E9452098F8117
:102610000E9475138F810E9475138E830E94920908
:10262000CE01019699878887FE013496FB87EA8759
:10263000F3E0FC87EA85FB8500808A859B8501960F
:102640009B878A87E885F985008288859985019628
:10265000998788879C8591509C87EC85EE2351F75C
:1026600020E0298180E08A8190E09B812D878E8700
:102670009F878D859E85AF85B889BC01CD01609609
:102680000FB6F894DEBF0FBECDBFCF91DF91089596
:10269000DF93CF9300D00F92CDB7DEB78B831A8232
:1026A00019828B819AE0692F0E948B45892F8A833A
:1026B0008B819AE0692F0E948B4589838A818F7074
:1026C0008A838981882F90E082959295907F9827C0
:1026D000807F9827807789839A818981892B0F90C1
:1026E0000F900F90CF91DF910895DF93CF9300D09B
:1026F0000F92CDB7DEB78B831A8219828B818F70D0
:102700008A838B81807F8983898182958F70882FCE
:1027100090E09C01220F331FC901880F991F880F79
:10272000991F820F931F89839A818981890F0F9046
:102730000F900F90CF91DF910895DF93CF93CDB796
:10274000DEB762970FB6F894DEBF0FBECDBF198A11
:10275000188AC8C08091580461E00E94AE0F809131
:10276000590461E00E94AE0F80915A0461E00E941A
:10277000AE0F80915B0461E00E94AE0F8889882FC4
:1027800090E0FC01E85AFB4F808160E00E94AE0FB0
:102790001F86A1C08F85882F90E0FC01E45AFB4F73
:1027A00080810E94280F882309F092C080E090E089
:1027B000A8E4B2E48B879C87AD87BE876B857C8558
:1027C0008D859E8520E030E04AE755E40E941F0297
:1027D000DC01CB018F839887A987BA876F817885C1
:1027E00089859A8520E030E040E85FE30E94250477
:1027F00088232CF481E090E09E838D833FC06F811D
:10280000788589859A8520E03FEF4FE757E40E945D
:10281000C50318164CF56B857C858D859E8520E05B
:1028200030E040E251E40E941F02DC01CB01BC0118
:10283000CD010E944900DC01CB019E838D830FC036
:1028400080E991E09C838B838B819C810197F1F7D8
:102850009C838B838D819E8101979E838D838D8147
:102860009E81009769F714C06F81788589859A8564
:102870000E944900DC01CB019E838D838D819E8166
:102880009A83898389819A810197F1F79A83898351
:102890008F85882F90E0FC01E45AFB4F80810E94D5
:1028A000280F8823A9F38889482F50E08F85282F87
:1028B00030E0CA01880F991F880F991F820F931F5C
:1028C000FC01E85BFB4F8081898B89898A8B10C072
:1028D0008F858F5F8F878F85843008F45BCF8889E1
:1028E0008F5F888B8889843008F434CF89898A8BFC
:1028F0008A8962960FB6F894DEBF0FBECDBFCF9126
:10290000DF910895DF93CF93CDB7DEB78BE295E0EB
:102910000E94A10C0E9433288BED94E00E941707BF
:1029200084EB95E20E948B080E940C0FCF91DF91FF
:102930000895DF93CF93CDB7DEB7A0970FB6F89485
:10294000DEBF0FBECDBF9F8F8E8F68A31D8E8D8D76
:10295000282F30E08E8D9F8DFC01E20FF31F8081C8
:102960000E9427088D8D8F5F8D8F80E090E0AAEF09
:10297000B3E4898F9A8FAB8FBC8F698D7A8D8B8DE5
:102980009C8D20E030E04AE755E40E941F02DC0104
:10299000CB018D8B9E8BAF8BB88F6D897E898F8994
:1029A000988D20E030E040E85FE30E942504882312
:1029B0002CF481E090E09C8B8B8B3FC06D897E89ED
:1029C0008F89988D20E03FEF4FE757E40E94C503C1
:1029D00018164CF5698D7A8D8B8D9C8D20E030E03A
:1029E00040E251E40E941F02DC01CB01BC01CD0199
:1029F0000E944900DC01CB019C8B8B8B0FC080E9CE
:102A000091E09A8B898B89899A890197F1F79A8B42
:102A1000898B8B899C8901979C8B8B8B8B899C895B
:102A2000009769F714C06D897E898F89988D0E94FF
:102A30004900DC01CB019C8B8B8B8B899C89988B0B
:102A40008F878F8598890197F1F7988B8F879D8D58
:102A500088A1981708F47BCF80E090E0AAE7B4E45F
:102A60008B879C87AD87BE876B857C858D859E8592
:102A700020E030E04AE755E40E941F02DC01CB0170
:102A80008F839887A987BA876F81788589859A858A
:102A900020E030E040E85FE30E94250488232CF426
:102AA00081E090E09E838D833FC06F81788589852A
:102AB0009A8520E03FEF4FE757E40E94C5031816C0
:102AC0004CF56B857C858D859E8520E030E040E26D
:102AD00051E40E941F02DC01CB01BC01CD010E9428
:102AE0004900DC01CB019E838D830FC080E991E01A
:102AF0009C838B838B819C810197F1F79C838B83D3
:102B00008D819E8101979E838D838D819E8100970B
:102B100069F714C06F81788589859A850E9449007C
:102B2000DC01CB019E838D838D819E819A83898375
:102B300089819A810197F1F79A838983A0960FB6CC
:102B4000F894DEBF0FBECDBFCF91DF9108950F93F4
:102B50001F93DF93CF93CDB7DEB7C258D0400FB6E7
:102B6000F894DEBF0FBECDBFFE01EE57FF4F80834E
:102B7000FE01E058FF4F1082FE01E158FF4F108226
:102B80000E94082C80E690E00E94CE2AFE01E558C3
:102B9000FF4F80E090E8ABE3B5E480839183A283AC
:102BA000B3838E0109581F4FFE01E558FF4F608126
:102BB00071818281938120E030E04AE755E40E94F0
:102BC0001F02DC01CB01F80180839183A283B383D0
:102BD000FE01E958FF4F608171818281938120E07D
:102BE00030E040E85FE30E942504882344F4FE01BE
:102BF000EB58FF4F81E090E09183808364C0FE0139
:102C0000E958FF4F608171818281938120E03FEF1D
:102C10004FE757E40E94C50318160CF043C0FE01AD
:102C2000E558FF4F608171818281938120E030E01F
:102C300040E251E40E941F02DC01CB018E010B58DF
:102C40001F4FBC01CD010E944900DC01CB01F801FE
:102C5000918380831FC0FE01ED58FF4F80E991E012
:102C600091838083FE01ED58FF4F80819181019710
:102C7000F1F7FE01ED58FF4F91838083DE01AB58E1
:102C8000BF4FFE01EB58FF4F808191810197119654
:102C90009C938E93FE01EB58FF4F808191810097AA
:102CA000D1F628C08E010B581F4FFE01E958FF4F87
:102CB00060817181828193810E944900DC01CB0196
:102CC000F80191838083DE01AF58BF4FFE01EB58BE
:102CD000FF4F8081918111969C938E93FE01EF5856
:102CE000FF4F808191810197F1F7FE01EF58FF4F6F
:102CF000918380831092D20581E08093CB0565C5D6
:102D000081E08093CD050DC10E94082C80E790E002
:102D10000E94CE2AFE01E359FF4F80E090E0AAEF27
:102D2000B4E480839183A283B3838E0107591F4F3C
:102D3000FE01E359FF4F608171818281938120E020
:102D400030E04AE755E40E941F02DC01CB01F801A4
:102D500080839183A283B383FE01E759FF4F608193
:102D600071818281938120E030E040E85FE30E943E
:102D70002504882344F4FE01E959FF4F81E090E0E7
:102D80009183808364C0FE01E759FF4F60817181A8
:102D90008281938120E03FEF4FE757E40E94C50313
:102DA00018160CF043C0FE01E359FF4F608171819A
:102DB0008281938120E030E040E251E40E941F02D2
:102DC000DC01CB018E0109591F4FBC01CD010E94CE
:102DD0004900DC01CB01F801918380831FC0FE0113
:102DE000EB59FF4F80E991E091838083FE01EB591D
:102DF000FF4F808191810197F1F7FE01EB59FF4F61
:102E000091838083DE01A959BF4FFE01E959FF4F2D
:102E100080819181019711969C938E93FE01E959CF
:102E2000FF4F808191810097D1F627C08E0109590B
:102E30001F4FFE01E759FF4F6081718182819381AD
:102E40000E944900DC01CB01F80191838083DE01FF
:102E5000AD59BF4FFE01E959FF4F808191818D939C
:102E60009C93FE01ED59FF4F808191810197F1F70D
:102E7000FE01ED59FF4F918380838CE794E06CE075
:102E80000E9499148091EF058823A9F5FE01E0586E
:102E9000FF4F80818823B9F40E94082C8EE790E0D0
:102EA0000E94CE2ADE01A058BF4FFE01E058FF4F1E
:102EB00080818F5F8C930E94712581E08093CF0584
:102EC0001092CD0554C3FE01E058FF4F8081813040
:102ED00041F50E94082C8BE890E00E94CE2A0E94C7
:102EE000712581E08093CF051092CD05FE01E05859
:102EF000FF4F10823CC38091EF05813019F40E948E
:102F000071250FC08091EF05823049F40E94082C92
:102F100088E990E00E94CE2A0E94712502C00E949A
:102F200071258091CD05882309F0EECE20C3FE01E6
:102F3000E158FF4F8081882309F010C288E894E0AF
:102F40006DE00E9499148091EF05882309F07EC1FD
:102F50000E94082C8BEA90E00E94CE2AFE01E15AE2
:102F6000FF4F80E090E0AAE7B4E480839183A283DE
:102F7000B3838E01055A1F4FFE01E15AFF4F608156
:102F800071818281938120E030E04AE755E40E941C
:102F90001F02DC01CB01F80180839183A283B383FC
:102FA000FE01E55AFF4F608171818281938120E0AB
:102FB00030E040E85FE30E942504882344F4FE01EA
:102FC000E75AFF4F81E090E09183808364C0FE0167
:102FD000E55AFF4F608171818281938120E03FEF4C
:102FE0004FE757E40E94C50318160CF043C0FE01DA
:102FF000E15AFF4F608171818281938120E030E04E
:1030000040E251E40E941F02DC01CB018E01075A0D
:103010001F4FBC01CD010E944900DC01CB01F8012A
:10302000918380831FC0FE01E95AFF4F80E991E040
:1030300091838083FE01E95AFF4F8081918101973E
:10304000F1F7FE01E95AFF4F91838083DE01A75A11
:10305000BF4FFE01E75AFF4F808191810197119682
:103060009C938E93FE01E75AFF4F808191810097D8
:10307000D1F627C08E01075A1F4FFE01E55AFF4FB8
:1030800060817181828193810E944900DC01CB01C2
:10309000F80191838083DE01AB5ABF4FFE01E75AEE
:1030A000FF4F808191818D939C93FE01EB5AFF4FDE
:1030B000808191810197F1F7FE01EB5AFF4F9183D7
:1030C00080830E94712581E08093CD05DE01A158A7
:1030D000BF4FFE01E158FF4F80818F5F8C93FE014F
:1030E000EF5AFF4F80E090E0AAEFB3E48083918332
:1030F000A283B3838E01035B1F4FFE01EF5AFF4F84
:10310000608171818281938120E030E04AE755E45B
:103110000E941F02DC01CB01F80180839183A2830E
:10312000B383FE01E35BFF4F6081718182819381F4
:1031300020E030E040E85FE30E942504882344F467
:10314000FE01E55BFF4F81E090E09183808364C0E6
:10315000FE01E35BFF4F608171818281938120E0FA
:103160003FEF4FE757E40E94C50318160CF043C029
:10317000FE01EF5AFF4F608171818281938120E0CF
:1031800030E040E251E40E941F02DC01CB018E01DD
:10319000055B1F4FBC01CD010E944900DC01CB0142
:1031A000F801918380831FC0FE01E75BFF4F80E938
:1031B00091E091838083FE01E75BFF4F80819181E5
:1031C0000197F1F7FE01E75BFF4F91838083DE01FA
:1031D000A55BBF4FFE01E55BFF4F808191810197A9
:1031E00011969C938E93FE01E55BFF4F8081918148
:1031F0000097D1F628C08E01055B1F4FFE01E35BEF
:10320000FF4F60817181828193810E944900DC01BE
:10321000CB01F80191838083DE01A95BBF4FFE01E2
:10322000E55BFF4F8081918111969C938E93FE0107
:10323000E95BFF4F808191810197F1F7FE01E95B26
:10324000FF4F918380831092CF0523C20E94712586
:10325000FE01ED5BFF4F80E090E0AAE7B3E48083DE
:103260009183A283B3838E01015C1F4FFE01ED5B4E
:10327000FF4F608171818281938120E030E04AE7D5
:1032800055E40E941F02DC01CB01F8018083918389
:10329000A283B383FE01FF96608171818281938155
:1032A00020E030E040E85FE30E94250488232CF40E
:1032B00081E090E09EAF8DAF46C0FE01FF96608139
:1032C00071818281938120E03FEF4FE757E40E94B4
:1032D000C503181664F5FE01ED5BFF4F6081718137
:1032E0008281938120E030E040E251E40E941F029D
:1032F000DC01CB01BC01CD010E944900DC01CB0106
:103300009EAF8DAF0FC080E991E09CAF8BAF8BADCE
:103310009CAD0197F1F79CAF8BAF8DAD9EAD019742
:103320009EAF8DAF8DAD9EAD009769F720C1FE01B8
:10333000FF9660817181828193810E944900DC0146
:10334000CB019EAF8DAF8DAD9EAD9AAF89AF89ADEC
:103350009AAD0197F1F79AAF89AF09C1FE01E15823
:10336000FF4F8081813009F002C185E994E06DE072
:103370000E9499148091EF05882309F0F6C00E94FD
:10338000082C88EB90E00E94CE2A80E090E0AAE72B
:10339000B4E48DAB9EABAFABB8AF6DA97EA98FA9DE
:1033A00098AD20E030E04AE755E40E941F02DC01BE
:1033B000CB0189AB9AABABABBCAB69A97AA98BA9A2
:1033C0009CA920E030E040E85FE30E9425048823C8
:1033D0002CF481E090E098AB8FA73FC069A97AA94F
:1033E0008BA99CA920E03FEF4FE757E40E94C5035B
:1033F00018164CF56DA97EA98FA998AD20E030E094
:1034000040E251E40E941F02DC01CB01BC01CD016E
:103410000E944900DC01CB0198AB8FA70FC080E967
:1034200091E09EA78DA78DA59EA50197F1F79EA778
:103430008DA78FA598A9019798AB8FA78FA598A95D
:10344000009769F714C069A97AA98BA99CA90E9461
:103450004900DC01CB0198AB8FA78FA598A99CA749
:103460008BA78BA59CA50197F1F79CA78BA70E9422
:10347000712581E08093D105FE01E158FF4F108254
:1034800080E090E0AAEFB3E48FA398A7A9A7BAA71A
:103490006FA178A589A59AA520E030E04AE755E418
:1034A0000E941F02DC01CB018BA39CA3ADA3BEA392
:1034B0006BA17CA18DA19EA120E030E040E85FE3FC
:1034C0000E94250488232CF481E090E09AA389A32C
:1034D0003FC06BA17CA18DA19EA120E03FEF4FE7F3
:1034E00057E40E94C50318164CF56FA178A589A56D
:1034F0009AA520E030E040E251E40E941F02DC0186
:10350000CB01BC01CD010E944900DC01CB019AA393
:1035100089A30FC080E991E098A38F8F8F8D98A128
:103520000197F1F798A38F8F89A19AA101979AA388
:1035300089A389A19AA1009769F714C06BA17CA106
:103540008DA19EA10E944900DC01CB019AA389A311
:1035500089A19AA19E8F8D8F8D8D9E8D0197F1F7F8
:103560009E8F8D8F1092CF0594C00E9471258091FF
:10357000CF05882309F0DBCC8CC082EA94E06CE0B4
:103580000E9499148091EF05882309F080C00E9461
:10359000082C85EC90E00E94CE2A80E090E0AAE71B
:1035A000B4E4898F9A8FAB8FBC8F698D7A8D8B8DA8
:1035B0009C8D20E030E04AE755E40E941F02DC01C8
:1035C000CB018D8B9E8BAF8BB88F6D897E898F8958
:1035D000988D20E030E040E85FE30E9425048823D6
:1035E0002CF481E090E09C8B8B8B3FC06D897E89B1
:1035F0008F89988D20E03FEF4FE757E40E94C50385
:1036000018164CF5698D7A8D8B8D9C8D20E030E0FD
:1036100040E251E40E941F02DC01CB01BC01CD015C
:103620000E944900DC01CB019C8B8B8B0FC080E991
:1036300091E09A8B898B89899A890197F1F79A8B06
:10364000898B8B899C8901979C8B8B8B8B899C891F
:10365000009769F714C06D897E898F89988D0E94C3
:103660004900DC01CB019C8B8B8B8B899C89988BCF
:103670008F878F8598890197F1F7988B8F870E94A4
:10368000712581E08093D2051092D10599C00E94E6
:1036900071258091D105882309F06FCF91C0FE017B
:1036A000EE57FF4F80810E948C2580EE94E06FE002
:1036B0000E9499148091EF05882309F07FC00E9431
:1036C000082C89ED90E00E94CE2A80E090E0AAE7E5
:1036D000B4E48B879C87AD87BE876B857C858D85A1
:1036E0009E8520E030E04AE755E40E941F02DC019D
:1036F000CB018F839887A987BA876F817885898561
:103700009A8520E030E040E85FE30E9425048823AA
:103710002CF481E090E09E838D833FC06F8178859B
:1037200089859A8520E03FEF4FE757E40E94C50363
:1037300018164CF56B857C858D859E8520E030E0E4
:1037400040E251E40E941F02DC01CB01BC01CD012B
:103750000E944900DC01CB019E838D830FC080E96C
:1037600091E09C838B838B819C810197F1F79C83F3
:103770008B838D819E8101979E838D838D819E8118
:10378000009769F714C06F81788589859A850E94B2
:103790004900DC01CB019E838D838D819E819A83BC
:1037A000898389819A810197F1F79A8389830E949D
:1037B00071251092CB051092D20507C00E94712589
:1037C0008091D205882309F06ACF8091CB058823A8
:1037D00009F096CAFE01EF57FF4F1082FE01EF5726
:1037E000FF4F8081CE57DF4F0FB6F894DEBF0FBE7C
:1037F000CDBFCF91DF911F910F9108950F931F932C
:10380000DF93CF93CDB7DEB7CE58D0400FB6F89444
:10381000DEBF0FBECDBF1092D30581E08093CC05F3
:103820000E94082C86EE90E00E94CE2AFE01E75707
:10383000FF4F80E090E8ABE3B5E480839183A283FF
:10384000B3838E010B571F4FFE01E757FF4F608177
:1038500071818281938120E030E04AE755E40E9443
:103860001F02DC01CB01F80180839183A283B38323
:10387000FE01EB57FF4F608171818281938120E0CF
:1038800030E040E85FE30E942504882344F4FE0111
:10389000ED57FF4F81E090E09183808364C0FE018B
:1038A000EB57FF4F608171818281938120E03FEF70
:1038B0004FE757E40E94C50318160CF043C0FE0101
:1038C000E757FF4F608171818281938120E030E072
:1038D00040E251E40E941F02DC01CB018E010D5732
:1038E0001F4FBC01CD010E944900DC01CB01F80152
:1038F000918380831FC0FE01EF57FF4F80E991E065
:1039000091838083FE01EF57FF4F80819181019762
:10391000F1F7FE01EF57FF4F91838083DE01AD5732
:10392000BF4FFE01ED57FF4F8081918101971196A6
:103930009C938E93FE01ED57FF4F808191810097FC
:10394000D1F68BC68E010D571F4FFE01EB57FF4F6F
:1039500060817181828193810E944900DC01CB01E9
:10396000F80191838083DE01A158BF4FFE01ED571E
:10397000FF4F8081918111969C938E93FE01E158B7
:10398000FF4F808191810197F1F7FE01E158FF4FD0
:103990009183808362C681E08093CE059BC10E94A3
:1039A000082C80E790E00E94CE2AFE01E558FF4FE8
:1039B00080E090E0AAEFB4E480839183A283B38394
:1039C0008E0109581F4FFE01E558FF4F608171813C
:1039D0008281938120E030E04AE755E40E941F0293
:1039E000DC01CB01F80180839183A283B383FE01C4
:1039F000E958FF4F608171818281938120E030E03E
:103A000040E85FE30E942504882344F4FE01EB585C
:103A1000FF4F81E090E09183808364C0FE01E9580C
:103A2000FF4F608171818281938120E03FEF4FE7FA
:103A300057E40E94C50318160CF043C0FE01E55878
:103A4000FF4F608171818281938120E030E040E20C
:103A500051E40E941F02DC01CB018E010B581F4F65
:103A6000BC01CD010E944900DC01CB01F80191832A
:103A700080831FC0FE01ED58FF4F80E991E09183E4
:103A80008083FE01ED58FF4F808191810197F1F70E
:103A9000FE01ED58FF4F91838083DE01AB58BF4F8D
:103AA000FE01EB58FF4F80819181019711969C9305
:103AB0008E93FE01EB58FF4F808191810097D1F6E4
:103AC00027C08E010B581F4FFE01E958FF4F608140
:103AD0007181828193810E944900DC01CB01F80150
:103AE00091838083DE01AF58BF4FFE01EB58FF4F3B
:103AF000808191818D939C93FE01EF58FF4F8081CF
:103B000091810197F1F7FE01EF58FF4F9183808378
:103B10008CE794E06CE00E9499148091EF05882373
:103B200009F0C2C00E94082C87EF90E00E94CE2AC4
:103B30000E94712581E08093D005FE01E359FF4F7B
:103B400080E090E0AAE7B4E480839183A283B3830A
:103B50008E0107591F4FFE01E359FF4F60817181AC
:103B60008281938120E030E04AE755E40E941F0201
:103B7000DC01CB01F80180839183A283B383FE0132
:103B8000E759FF4F608171818281938120E030E0AD
:103B900040E85FE30E942504882344F4FE01E959CC
:103BA000FF4F81E090E09183808364C0FE01E7597C
:103BB000FF4F608171818281938120E03FEF4FE769
:103BC00057E40E94C50318160CF043C0FE01E359E8
:103BD000FF4F608171818281938120E030E040E27B
:103BE00051E40E941F02DC01CB018E0109591F4FD5
:103BF000BC01CD010E944900DC01CB01F801918399
:103C000080831FC0FE01EB59FF4F80E991E0918353
:103C10008083FE01EB59FF4F808191810197F1F77D
:103C2000FE01EB59FF4F91838083DE01A959BF4FFD
:103C3000FE01E959FF4F80819181019711969C9374
:103C40008E93FE01E959FF4F808191810097D1F653
:103C500028C08E0109591F4FFE01E759FF4F6081AF
:103C60007181828193810E944900DC01CB01F801BE
:103C700091838083DE01AD59BF4FFE01E959FF4FAB
:103C80008081918111969C938E93FE01ED59FF4F97
:103C9000808191810197F1F7FE01ED59FF4F9183EA
:103CA00080831092CE05A6C18091EF05813019F472
:103CB0000E9471250FC08091EF05823049F40E9467
:103CC000082C88E990E00E94CE2A0E94712502C04B
:103CD0000E9471258091CE05882309F060CE8AC1AB
:103CE00088E894E06DE00E9499148091EF058823A4
:103CF00009F0CAC00E94712581E08093D3050E941B
:103D0000082C83E091E00E94CE2A82E060E00E94CD
:103D1000932B8EE091E00E94CE2AFE01E15AFF4FE4
:103D200080E090E0AAE7B4E480839183A283B38328
:103D30008E01055A1F4FFE01E15AFF4F60817181CC
:103D40008281938120E030E04AE755E40E941F021F
:103D5000DC01CB01F80180839183A283B383FE0150
:103D6000E55AFF4F608171818281938120E030E0CC
:103D700040E85FE30E942504882344F4FE01E75AEB
:103D8000FF4F81E090E09183808364C0FE01E55A9B
:103D9000FF4F608171818281938120E03FEF4FE787
:103DA00057E40E94C50318160CF043C0FE01E15A07
:103DB000FF4F608171818281938120E030E040E299
:103DC00051E40E941F02DC01CB018E01075A1F4FF4
:103DD000BC01CD010E944900DC01CB01F8019183B7
:103DE00080831FC0FE01E95AFF4F80E991E0918373
:103DF0008083FE01E95AFF4F808191810197F1F79D
:103E0000FE01E95AFF4F91838083DE01A75ABF4F1D
:103E1000FE01E75AFF4F80819181019711969C9393
:103E20008E93FE01E75AFF4F808191810097D1F672
:103E300028C08E01075A1F4FFE01E55AFF4F6081CF
:103E40007181828193810E944900DC01CB01F801DC
:103E500091838083DE01AB5ABF4FFE01E75AFF4FCB
:103E60008081918111969C938E93FE01EB5AFF4FB6
:103E7000808191810197F1F7FE01EB5AFF4F918309
:103E800080831092D005E4C30E947125FE01EF5A91
:103E9000FF4F80E090E0AAE7B4E480839183A2839F
:103EA000B3838E01035B1F4FFE01EF5AFF4F60810A
:103EB00071818281938120E030E04AE755E40E94DD
:103EC0001F02DC01CB01F80180839183A283B383BD
:103ED000FE01E35BFF4F608171818281938120E06D
:103EE00030E040E85FE30E942504882344F4FE01AB
:103EF000E55BFF4F81E090E09183808364C0FE0129
:103F0000E35BFF4F608171818281938120E03FEF0D
:103F10004FE757E40E94C50318160CF043C0FE019A
:103F2000EF5AFF4F608171818281938120E030E000
:103F300040E251E40E941F02DC01CB018E01055BCF
:103F40001F4FBC01CD010E944900DC01CB01F801EB
:103F5000918380831FC0FE01E75BFF4F80E991E002
:103F600091838083FE01E75BFF4F80819181019700
:103F7000F1F7FE01E75BFF4F91838083DE01A55BD4
:103F8000BF4FFE01E55BFF4F808191810197119644
:103F90009C938E93FE01E55BFF4F8081918100979A
:103FA000D1F628C08E01055B1F4FFE01E35BFF4F7A
:103FB00060817181828193810E944900DC01CB0183
:103FC000F80191838083DE01A95BBF4FFE01E55BB1
:103FD000FF4F8081918111969C938E93FE01E95B46
:103FE000FF4F808191810197F1F7FE01E95BFF4F5F
:103FF000918380838091D005882309F071CE28C3F6
:104000008EEA94E061E10E9499148091EF05882383
:1040100009F094C2FE01E357FF4F10821DC0FE015C
:10402000E357FF4F8081282F30E0FE01E357FF4F19
:104030008081882F90E0FC01EA51FA4F8081F901DC
:10404000EA52FA4F8083DE01A357BF4FFE01E357C8
:10405000FF4F80818F5F8C93FE01E357FF4F80817C
:104060008031E8F20E94082C88E191E00E94CE2A7B
:10407000FE01ED5BFF4F80E090E0AAEFB4E48083A7
:104080009183A283B3838E01015C1F4FFE01ED5B20
:10409000FF4F608171818281938120E030E04AE7A7
:1040A00055E40E941F02DC01CB01F801808391835B
:1040B000A283B383FE01FF96608171818281938127
:1040C00020E030E040E85FE30E94250488232CF4E0
:1040D00081E090E09EAF8DAF46C0FE01FF9660810B
:1040E00071818281938120E03FEF4FE757E40E9486
:1040F000C503181664F5FE01ED5BFF4F6081718109
:104100008281938120E030E040E251E40E941F026E
:10411000DC01CB01BC01CD010E944900DC01CB01D7
:104120009EAF8DAF0FC080E991E09CAF8BAF8BADA0
:104130009CAD0197F1F79CAF8BAF8DAD9EAD019714
:104140009EAF8DAF8DAD9EAD009769F716C0FE0195
:10415000FF9660817181828193810E944900DC0118
:10416000CB019EAF8DAF8DAD9EAD9AAF89AF89ADBE
:104170009AAD0197F1F79AAF89AF0E94082C809110
:10418000E105882F90E0A0E0B0E0BC01CD010E94E5
:10419000F72A80E090E4ACE9B5E48DAB9EABAFAB21
:1041A000B8AF6DA97EA98FA998AD20E030E04AE7AD
:1041B00055E40E941F02DC01CB0189AB9AABABAB8B
:1041C000BCAB69A97AA98BA99CA920E030E040E8A2
:1041D0005FE30E94250488232CF481E090E098ABF3
:1041E0008FA73FC069A97AA98BA99CA920E03FEFBE
:1041F0004FE757E40E94C50318164CF56DA97EA938
:104200008FA998AD20E030E040E251E40E941F0207
:10421000DC01CB01BC01CD010E944900DC01CB01D6
:1042200098AB8FA70FC080E991E09EA78DA78DA5C1
:104230009EA50197F1F79EA78DA78FA598A9019735
:1042400098AB8FA78FA598A9009769F714C069A9A3
:104250007AA98BA99CA90E944900DC01CB0198ABEB
:104260008FA78FA598A99CA78BA78BA59CA5019725
:10427000F1F79CA78BA78091E105813009F080C000
:104280000E94082C8AE291E00E94CE2AFE01E257A9
:10429000FF4F8BE080830E94712580E090E0AAEFC1
:1042A000B4E48FA398A7A9A7BAA76FA178A589A5F9
:1042B0009AA520E030E04AE755E40E941F02DC01A5
:1042C000CB018BA39CA3ADA3BEA36BA17CA18DA1AD
:1042D0009EA120E030E040E85FE30E9425048823AF
:1042E0002CF481E090E09AA389A33FC06BA17CA14C
:1042F0008DA19EA120E03FEF4FE757E40E94C50348
:1043000018164CF56FA178A589A59AA520E030E094
:1043100040E251E40E941F02DC01CB01BC01CD014F
:104320000E944900DC01CB019AA389A30FC080E958
:1043300091E098A38F8F8F8D98A10197F1F798A3A3
:104340008F8F89A19AA101979AA389A389A19AA184
:10435000009769F77CC06BA17CA18DA19EA10E94F2
:104360004900DC01CB019AA389A389A19AA19E8F60
:104370008D8F8D8D9E8D0197F1F79E8F8D8F67C0EC
:104380008091E105823071F40E94082C87E391E06E
:104390000E94CE2AFE01E257FF4F8BE080830E94ED
:1043A000712555C08091E105843071F40E94082C7C
:1043B00085E491E00E94CE2AFE01E257FF4F8BE098
:1043C00080830E94712543C08091E105833071F4A0
:1043D0000E94082C83E591E00E94CE2AFE01E2575C
:1043E000FF4F8BE080830E94712531C08091E105F1
:1043F000853071F40E94082C83E691E00E94CE2A59
:10440000FE01E257FF4F8BE080830E9471251FC0A1
:104410008091E105863071F40E94082C80E791E0DC
:104420000E94CE2AFE01E257FF4F8BE080830E945C
:1044300071250DC00E94082C81E891E00E94CE2ACF
:10444000FE01E257FF4F8BE080830E94712580E0E0
:1044500090E0AAE7B4E4898F9A8FAB8FBC8F698D07
:104460007A8D8B8D9C8D20E030E04AE755E40E94E8
:104470001F02DC01CB018D8B9E8BAF8BB88F6D89BA
:104480007E898F89988D20E030E040E85FE30E94CC
:10449000250488232CF481E090E09C8B8B8B3FC01B
:1044A0006D897E898F89988D20E03FEF4FE757E433
:1044B0000E94C50318164CF5698D7A8D8B8D9C8DE5
:1044C00020E030E040E251E40E941F02DC01CB0119
:1044D000BC01CD010E944900DC01CB019C8B8B8B80
:1044E0000FC080E991E09A8B898B89899A8901971D
:1044F000F1F79A8B898B8B899C8901979C8B8B8B8D
:104500008B899C89009769F714C06D897E898F8992
:10451000988D0E944900DC01CB019C8B8B8B8B8991
:104520009C89988B8F878F8598890197F1F7988B55
:104530008F871092CC051092D3058FC08091EF0524
:10454000893009F085C00E94082C8AE891E00E9419
:10455000CE2A0E94712580E090E0AAE7B4E48B8720
:104560009C87AD87BE876B857C858D859E8520E089
:1045700030E04AE755E40E941F02DC01CB018F8343
:104580009887A987BA876F81788589859A8520E081
:1045900030E040E85FE30E94250488232CF481E0AA
:1045A00090E09E838D833FC06F81788589859A8551
:1045B00020E03FEF4FE757E40E94C50318164CF583
:1045C0006B857C858D859E8520E030E040E251E45E
:1045D0000E941F02DC01CB01BC01CD010E944900F9
:1045E000DC01CB019E838D830FC080E991E09C8329
:1045F0008B838B819C810197F1F79C838B838D81C9
:104600009E8101979E838D838D819E81009769F79E
:1046100014C06F81788589859A850E944900DC01E4
:10462000CB019E838D838D819E819A83898389812D
:104630009A810197F1F79A83898381E08093CE056F
:104640001092D305FE01E257FF4F84E6808305C038
:104650008091D305882309F0D3CC8091CC058823A1
:1046600009F099C9FE01E257FF4F8081C257DF4F21
:104670000FB6F894DEBF0FBECDBFCF91DF911F9173
:104680000F910895DF93CF93CDB7DEB76D970FB637
:10469000F894DEBF0FBECDBF8D8F81E08093D5052E
:1046A000FBC08BEC94E060E10E9499148091EF05CF
:1046B000882309F07DC00E94082C8CE991E00E94BB
:1046C000CE2A0E94712580E090E0AAE7B4E4898FA9
:1046D0009A8FAB8FBC8F698D7A8D8B8D9C8D20E0EE
:1046E00030E04AE755E40E941F02DC01CB018D8BCC
:1046F0009E8BAF8BB88F6D897E898F89988D20E0D6
:1047000030E040E85FE30E94250488232CF481E038
:1047100090E09C8B8B8B3FC06D897E898F89988DB3
:1047200020E03FEF4FE757E40E94C50318164CF511
:10473000698D7A8D8B8D9C8D20E030E040E251E4D4
:104740000E941F02DC01CB01BC01CD010E94490087
:10475000DC01CB019C8B8B8B0FC080E991E09A8BA5
:10476000898B89899A890197F1F79A8B898B8B8933
:104770009C8901979C8B8B8B8B899C89009769F70F
:1047800014C06D897E898F89988D0E944900DC0153
:10479000CB019C8B8B8B8B899C89988B8F878F858A
:1047A00098890197F1F7988B8F871092D50574C07F
:1047B0000E94712580E090E0AAEFB3E48B879C878C
:1047C000AD87BE876B857C858D859E8520E030E03A
:1047D0004AE755E40E941F02DC01CB018F839887D2
:1047E000A987BA876F81788589859A8520E030E02E
:1047F00040E85FE30E94250488232CF481E090E0E8
:104800009E838D833FC06F81788589859A8520E05E
:104810003FEF4FE757E40E94C50318164CF56B8530
:104820007C858D859E8520E030E040E251E40E9449
:104830001F02DC01CB01BC01CD010E944900DC015B
:10484000CB019E838D830FC080E991E09C838B8395
:104850008B819C810197F1F79C838B838D819E8155
:1048600001979E838D838D819E81009769F714C087
:104870006F81788589859A850E944900DC01CB018A
:104880009E838D838D819E819A83898389819A817C
:104890000197F1F79A8389838091D505882309F0E0
:1048A00000CF6D960FB6F894DEBF0FBECDBFCF918F
:1048B000DF910895DF93CF93CDB7DEB76C970FB636
:1048C000F894DEBF0FBECDBF81E08093D405FBC05E
:1048D0008FEB94E06CE00E9499148091EF0588239F
:1048E00009F07DC00E94082C8DEA91E00E94CE2A3A
:1048F0000E94712580E090E0AAE7B4E4898F9A8F46
:10490000AB8FBC8F698D7A8D8B8D9C8D20E030E0D4
:104910004AE755E40E941F02DC01CB018D8B9E8B80
:10492000AF8BB88F6D897E898F89988D20E030E0BC
:1049300040E85FE30E94250488232CF481E090E0A6
:104940009C8B8B8B3FC06D897E898F89988D20E0F1
:104950003FEF4FE757E40E94C50318164CF5698DE9
:104960007A8D8B8D9C8D20E030E040E251E40E94F6
:104970001F02DC01CB01BC01CD010E944900DC011A
:10498000CB019C8B8B8B0FC080E991E09A8B898B3C
:1049900089899A890197F1F79A8B898B8B899C89F0
:1049A00001979C8B8B8B8B899C89009769F714C02E
:1049B0006D897E898F89988D0E944900DC01CB0129
:1049C0009C8B8B8B8B899C89988B8F878F85988903
:1049D0000197F1F7988B8F871092D40574C00E94CD
:1049E000712580E090E0AAEFB3E48B879C87AD87C8
:1049F000BE876B857C858D859E8520E030E04AE70B
:104A000055E40E941F02DC01CB018F839887A987A0
:104A1000BA876F81788589859A8520E030E040E803
:104A20005FE30E94250488232CF481E090E09E83BC
:104A30008D833FC06F81788589859A8520E03FEF1F
:104A40004FE757E40E94C50318164CF56B857C852B
:104A50008D859E8520E030E040E251E40E941F02F7
:104A6000DC01CB01BC01CD010E944900DC01CB017E
:104A70009E838D830FC080E991E09C838B838B8123
:104A80009C810197F1F79C838B838D819E81019797
:104A90009E838D838D819E81009769F714C06F81FD
:104AA000788589859A850E944900DC01CB019E8327
:104AB0008D838D819E819A83898389819A810197D3
:104AC000F1F79A8389838091D405882309F000CF78
:104AD0006C960FB6F894DEBF0FBECDBFCF91DF91BD
:104AE0000895DF93CF930F92CDB7DEB71092CA052A
:104AF00019820BC08981882F90E0FC01EA51FA4F9E
:104B00008AEA808389818F5F898389818E3190F3DE
:104B10000F90CF91DF910895DF93CF9300D00F9244
:104B2000CDB7DEB78B831A8219828B818093EB0419
:104B300086E089830DC08981882F90E0FC01E052D6
:104B4000FB4F90818A81890F8A8389818F5F898356
:104B500089818D3080F38A818093EE040F900F90CD
:104B60000F90CF91DF9108950F931F93DF93CF9311
:104B7000CDB7DEB78091CA05082F10E00E948108EA
:104B8000F801EA51FA4F80838091CA058F5F8093C4
:104B9000CA05CF91DF911F910F910895DF93CF93B5
:104BA000CDB7DEB78CE00E94D908CF91DF91089590
:104BB000DF93CF9300D000D0CDB7DEB79A8389833F
:104BC0006B830E94FB080E948709883019F081E0FE
:104BD0008C8326C089819A81892F99278E75806A56
:104BE0000E941B090E948709883119F081E08C839B
:104BF00017C089810E941B090E948709883219F019
:104C000081E08C830DC08B810E941B090E94870963
:104C1000883219F081E08C8303C00E9492091C82C3
:104C20008C810F900F900F900F90CF91DF9108958E
:104C3000DF93CF9300D000D00F92CDB7DEB79A8329
:104C400089837C836B830E94FB080E9487098830DC
:104C500019F081E08D8337C089819A81892F992746
:104C60008E75806A0E941B090E948709883119F09D
:104C700081E08D8328C089810E941B090E948709D9
:104C8000883219F081E08D831EC00E94FB080E94CB
:104C90008709803119F081E08D8315C089819A815F
:104CA000892F9927816A0E941B090E9487098034F5
:104CB00019F081E08D8307C08B819C810E9452098D
:104CC0000E9492091D828D810F900F900F900F907E
:104CD0000F90CF91DF910895DF93CF93CDB7DEB7DB
:104CE000AB970FB6F894DEBF0FBECDBF8BA78CE09D
:104CF00060E00E94AE0F8BA582958F70982F917007
:104D000084E1692F0E94AE0F8BA5829586958770EE
:104D1000982F917085E1692F0E94AE0F8BA5829527
:104D2000869586958370982F917086E1692F0E94F1
:104D3000AE0F8BA5982F991F9927991F88E1692F8E
:104D40000E94AE0F8CE061E00E94AE0F80E090E028
:104D5000A0E8BFE38FA398A7A9A7BAA76FA178A5DA
:104D600089A59AA520E030E04AE755E40E941F0299
:104D7000DC01CB018BA39CA3ADA3BEA36BA17CA143
:104D80008DA19EA120E030E040E85FE30E94250471
:104D900088232CF481E090E09AA389A33FC06BA103
:104DA0007CA18DA19EA120E03FEF4FE757E40E9438
:104DB000C50318164CF56FA178A589A59AA520E022
:104DC00030E040E251E40E941F02DC01CB01BC0153
:104DD000CD010E944900DC01CB019AA389A30FC039
:104DE00080E991E098A38F8F8F8D98A10197F1F7BB
:104DF00098A38F8F89A19AA101979AA389A389A1CA
:104E00009AA1009769F714C06BA17CA18DA19EA106
:104E10000E944900DC01CB019AA389A389A19AA130
:104E20009E8F8D8F8D8D9E8D0197F1F79E8F8D8F2B
:104E30008CE060E00E94AE0F8BA5982F917084E10A
:104E4000692F0E94AE0F8BA58695982F917085E1F2
:104E5000692F0E94AE0F8BA586958695982F91702D
:104E600086E1692F0E94AE0F8BA586958695869563
:104E7000982F917088E1692F0E94AE0F8CE061E05D
:104E80000E94AE0F80E090E0A0E8BFE3898F9A8F88
:104E9000AB8FBC8F698D7A8D8B8D9C8D20E030E03F
:104EA0004AE755E40E941F02DC01CB018D8B9E8BEB
:104EB000AF8BB88F6D897E898F89988D20E030E027
:104EC00040E85FE30E94250488232CF481E090E011
:104ED0009C8B8B8B3FC06D897E898F89988D20E05C
:104EE0003FEF4FE757E40E94C50318164CF5698D54
:104EF0007A8D8B8D9C8D20E030E040E251E40E9461
:104F00001F02DC01CB01BC01CD010E944900DC0184
:104F1000CB019C8B8B8B0FC080E991E09A8B898BA6
:104F200089899A890197F1F79A8B898B8B899C895A
:104F300001979C8B8B8B8B899C89009769F714C098
:104F40006D897E898F89988D0E944900DC01CB0193
:104F50009C8B8B8B8B899C89988B8F878F8598896D
:104F60000197F1F7988B8F878CE060E00E94AE0F7D
:104F700080E090E0A0EFB1E48B879C87AD87BE878F
:104F80006B857C858D859E8520E030E04AE755E481
:104F90000E941F02DC01CB018F839887A987BA8703
:104FA0006F81788589859A8520E030E040E85FE36D
:104FB0000E94250488232CF481E090E09E838D8359
:104FC0003FC06F81788589859A8520E03FEF4FE764
:104FD00057E40E94C50318164CF56B857C858D85BA
:104FE0009E8520E030E040E251E40E941F02DC0197
:104FF000CB01BC01CD010E944900DC01CB019E83A5
:105000008D830FC080E991E09C838B838B819C8191
:105010000197F1F79C838B838D819E8101979E83FD
:105020008D838D819E81009769F714C06F8178858B
:1050300089859A850E944900DC01CB019E838D837E
:105040008D819E819A83898389819A810197F1F765
:105050009A838983AB960FB6F894DEBF0FBECDBF9F
:10506000CF91DF9108950F931F93DF93CF93CDB727
:10507000DEB7C654D0400FB6F894DEBF0FBECDBF2A
:10508000FE01ED5BFF4F80E090E0A6E1B3E480839A
:105090009183A283B3838E01015C1F4FFE01ED5B00
:1050A000FF4F608171818281938120E030E04AE787
:1050B00055E40E941F02DC01CB01F801808391833B
:1050C000A283B383FE01FF96608171818281938107
:1050D00020E030E040E85FE30E94250488232CF4C0
:1050E00081E090E09EAF8DAF46C0FE01FF966081EB
:1050F00071818281938120E03FEF4FE757E40E9466
:10510000C503181664F5FE01ED5BFF4F60817181E8
:105110008281938120E030E040E251E40E941F024E
:10512000DC01CB01BC01CD010E944900DC01CB01B7
:105130009EAF8DAF0FC080E991E09CAF8BAF8BAD80
:105140009CAD0197F1F79CAF8BAF8DAD9EAD0197F4
:105150009EAF8DAF8DAD9EAD009769F716C0FE0175
:10516000FF9660817181828193810E944900DC01F8
:10517000CB019EAF8DAF8DAD9EAD9AAF89AF89AD9E
:105180009AAD0197F1F79AAF89AF8DE060E00E9488
:10519000AE0F82E00E94BD2A80E090E0A0EAB0E479
:1051A0008DAB9EABAFABB8AF6DA97EA98FA998AD03
:1051B00020E030E04AE755E40E941F02DC01CB0109
:1051C00089AB9AABABABBCAB69A97AA98BA99CA9FB
:1051D00020E030E040E85FE30E94250488232CF4BF
:1051E00081E090E098AB8FA73FC069A97AA98BA90D
:1051F0009CA920E03FEF4FE757E40E94C503181633
:105200004CF56DA97EA98FA998AD20E030E040E271
:1052100051E40E941F02DC01CB01BC01CD010E94C0
:105220004900DC01CB0198AB8FA70FC080E991E06A
:105230009EA78DA78DA59EA50197F1F79EA78DA787
:105240008FA598A9019798AB8FA78FA598A90097CC
:1052500069F714C069A97AA98BA99CA90E94490081
:10526000DC01CB0198AB8FA78FA598A99CA78BA732
:105270008BA59CA50197F1F79CA78BA788E20E94BC
:10528000BD2A80E090E0A0EAB0E48FA398A7A9A788
:10529000BAA76FA178A589A59AA520E030E04AE7D2
:1052A00055E40E941F02DC01CB018BA39CA3ADA39C
:1052B000BEA36BA17CA18DA19EA120E030E040E8BF
:1052C0005FE30E94250488232CF481E090E09AA3F8
:1052D00089A33FC06BA17CA18DA19EA120E03FEFDF
:1052E0004FE757E40E94C50318164CF56FA178A547
:1052F00089A59AA520E030E040E251E40E941F0217
:10530000DC01CB01BC01CD010E944900DC01CB01D5
:105310009AA389A30FC080E991E098A38F8F8F8D06
:1053200098A10197F1F798A38F8F89A19AA101976E
:105330009AA389A389A19AA1009769F714C06BA1C8
:105340007CA18DA19EA10E944900DC01CB019AA302
:1053500089A389A19AA19E8F8D8F8D8D9E8D019796
:10536000F1F79E8F8D8F8CE00E94BD2A80E090E047
:10537000A0EAB0E4898F9A8FAB8FBC8F698D7A8D4C
:105380008B8D9C8D20E030E04AE755E40E941F029F
:10539000DC01CB018D8B9E8BAF8BB88F6D897E89A5
:1053A0008F89988D20E030E040E85FE30E9425047B
:1053B00088232CF481E090E09C8B8B8B3FC06D891F
:1053C0007E898F89988D20E03FEF4FE757E40E9458
:1053D000C50318164CF5698D7A8D8B8D9C8D20E058
:1053E00030E040E251E40E941F02DC01CB01BC012D
:1053F000CD010E944900DC01CB019C8B8B8B0FC03F
:1054000080E991E09A8B898B89899A890197F1F7D4
:105410009A8B898B8B899C8901979C8B8B8B8B8931
:105420009C89009769F714C06D897E898F89988D52
:105430000E944900DC01CB019C8B8B8B8B899C8962
:10544000988B8F878F8598890197F1F7988B8F8735
:1054500081E00E94BD2A80E090E0A0EAB0E48B8762
:105460009C87AD87BE876B857C858D859E8520E07A
:1054700030E04AE755E40E941F02DC01CB018F8334
:105480009887A987BA876F81788589859A8520E072
:1054900030E040E85FE30E94250488232CF481E09B
:1054A00090E09E838D833FC06F81788589859A8542
:1054B00020E03FEF4FE757E40E94C50318164CF574
:1054C0006B857C858D859E8520E030E040E251E44F
:1054D0000E941F02DC01CB01BC01CD010E944900EA
:1054E000DC01CB019E838D830FC080E991E09C831A
:1054F0008B838B819C810197F1F79C838B838D81BA
:105500009E8101979E838D838D819E81009769F78F
:1055100014C06F81788589859A850E944900DC01D5
:10552000CB019E838D838D819E819A83898389811E
:105530009A810197F1F79A83898386E00E94BD2AB8
:10554000CA5BDF4F0FB6F894DEBF0FBECDBFCF9161
:10555000DF911F910F910895DF93CF930F92CDB7F5
:10556000DEB789838DE061E00E94AE0F89810E94E1
:105570006C260F90CF91DF910895DF93CF930F9218
:10558000CDB7DEB789838DE060E00E94AE0F8981E0
:105590000E946C260F90CF91DF910895DF93CF93F7
:1055A00000D00F92CDB7DEB79B838A8319820EC0DD
:1055B0008981282F30E08A819B81FC01E20FF31F53
:1055C00080810E94AC2A89818F5F89838981282FFD
:1055D00030E08A819B81FC01E20FF31F80818823E8
:1055E00039F70F900F900F90CF91DF9108950F939F
:1055F0001F93DF93CF93CDB7DEB7A5970FB6F8947F
:10560000DEBF0FBECDBF6AA37BA38CA39DA380E2A8
:10561000FE013296DF01982F1D929A95E9F71982C3
:105620008AA19BA1ACA1BDA1BB230CF04AC08AA159
:105630009BA1ACA1BDA1B095A095909581959F4FE0
:10564000AF4FBF4F8AA39BA3ACA3BDA38DE20E9423
:10565000AC2A37C08981082F10E08AA19BA1ACA198
:10566000BDA12AE030E040E050E0BC01CD010E9445
:10567000B945DC01CB01AC01BD019801220F331FFC
:10568000220F331FCE010196820F931FFC0131962A
:1056900040835183628373838AA19BA1ACA1BDA186
:1056A0002AE030E040E050E0BC01CD010E94B94565
:1056B000DA01C9018AA39BA3ACA3BDA389818F5F33
:1056C00089838AA19BA1ACA1BDA10097A105B105C9
:1056D00009F689818150898318C08981882F90E0DB
:1056E0009C01220F331F220F331FCE010196820F20
:1056F000931FFC01319680819181A281B381805DED
:105700000E94AC2A8981815089838981803328F362
:10571000A5960FB6F894DEBF0FBECDBFCF91DF9137
:105720001F910F910895DF93CF9300D00F92CDB7C3
:10573000DEB78A836B838A81813019F48B818983F8
:1057400014C08A81823021F48B81805C89830DC0F2
:105750008A81833021F48B818C5E898306C08A81A3
:10576000843019F48B818C5A8983898180580E94F6
:10577000BD2A0F900F900F90CF91DF910895DF9386
:10578000CF9300D000D00F92CDB7DEB79C838B8330
:105790006D831A8219828D81882F90E0880F991F5E
:1057A000880F991F880F991F89838981805C0E94C7
:1057B000BD2A1A820EC08A81282F30E08B819C81FD
:1057C000FC01E20FF31F80810E94AC2A8A818F5F67
:1057D0008A838A81883078F381E060E00E94932B8D
:1057E0008D810E94AC2A0F900F900F900F900F9018
:1057F000CF91DF910895DF93CF930F92CDB7DEB7AE
:10580000898389810E94AC2A0F90CF91DF910895FE
:10581000DF93CF93CDB7DEB781E00E94BD2ACF9151
:10582000DF910895DF93CF93CDB7DEB784E261E0D7
:105830000E94AE0FCF91DF910895DF93CF93CDB744
:10584000DEB784E260E00E94AE0FCF91DF91089551
:10585000DF93CF93CDB7DEB76C970FB6F894DEBF6A
:105860000FBECDBF8BE295E00E94A10C0E943328B1
:105870000E94CE2580E090E0A8E4B3E4898F9A8F5F
:10588000AB8FBC8F698D7A8D8B8D9C8D20E030E045
:105890004AE755E40E941F02DC01CB018D8B9E8BF1
:1058A000AF8BB88F6D897E898F89988D20E030E02D
:1058B00040E85FE30E94250488232CF481E090E017
:1058C0009C8B8B8B3FC06D897E898F89988D20E062
:1058D0003FEF4FE757E40E94C50318164CF5698D5A
:1058E0007A8D8B8D9C8D20E030E040E251E40E9467
:1058F0001F02DC01CB01BC01CD010E944900DC018B
:10590000CB019C8B8B8B0FC080E991E09A8B898BAC
:1059100089899A890197F1F79A8B898B8B899C8960
:1059200001979C8B8B8B8B899C89009769F714C09E
:105930006D897E898F89988D0E944900DC01CB0199
:105940009C8B8B8B8B899C89988B8F878F85988973
:105950000197F1F7988B8F870E94181280E090E0F2
:10596000A8E4B3E48B879C87AD87BE876B857C8575
:105970008D859E8520E030E04AE755E40E941F02B5
:10598000DC01CB018F839887A987BA876F817885DF
:1059900089859A8520E030E040E85FE30E94250495
:1059A00088232CF481E090E09E838D833FC06F813B
:1059B000788589859A8520E03FEF4FE757E40E947C
:1059C000C50318164CF56B857C858D859E8520E07A
:1059D00030E040E251E40E941F02DC01CB01BC0137
:1059E000CD010E944900DC01CB019E838D830FC055
:1059F00080E991E09C838B838B819C810197F1F7F7
:105A00009C838B838D819E8101979E838D838D8165
:105A10009E81009769F714C06F81788589859A8582
:105A20000E944900DC01CB019E838D838D819E8184
:105A30009A83898389819A810197F1F79A8389836F
:105A40000E94821480E060E00E94A00920EC3FE206
:105A500081E0B9010E94070C81E00E94D30B6C9693
:105A60000FB6F894DEBF0FBECDBFCF91DF91089582
:105A7000DF93CF93CDB7DEB7ED970FB6F894DEBFC7
:105A80000FBECDBF1BAE1AAE19AE0E94082C0E94ED
:105A9000904082E060E00E94932B81EC91E00E94B4
:105AA000CE2A83E060E00E94932B8FEC91E00E946D
:105AB000CE2A84E060E00E94932B83EE91E00E9466
:105AC000CE2A0E949D138BAF8BAD8823D1F38BAD73
:105AD000282F30E03DAF2CAF8CAD9DAD82339105CA
